{
  "contractName": "ERC20Faucet",
  "abi": [
    {
      "constant": true,
      "inputs": [],
      "name": "maxAllowanceInclusive",
      "outputs": [
        {
          "name": "",
          "type": "uint256"
        }
      ],
      "payable": false,
      "stateMutability": "view",
      "type": "function",
      "signature": "0x40c0f420"
    },
    {
      "constant": true,
      "inputs": [],
      "name": "erc20Contract",
      "outputs": [
        {
          "name": "",
          "type": "address"
        }
      ],
      "payable": false,
      "stateMutability": "view",
      "type": "function",
      "signature": "0xa8f6c913"
    },
    {
      "constant": true,
      "inputs": [
        {
          "name": "",
          "type": "address"
        }
      ],
      "name": "claimedTokens",
      "outputs": [
        {
          "name": "",
          "type": "uint256"
        }
      ],
      "payable": false,
      "stateMutability": "view",
      "type": "function",
      "signature": "0xa960c65f"
    },
    {
      "constant": true,
      "inputs": [],
      "name": "isPaused",
      "outputs": [
        {
          "name": "",
          "type": "bool"
        }
      ],
      "payable": false,
      "stateMutability": "view",
      "type": "function",
      "signature": "0xb187bd26"
    },
    {
      "inputs": [
        {
          "name": "_erc20ContractAddress",
          "type": "address"
        },
        {
          "name": "_maxAllowanceInclusive",
          "type": "uint256"
        }
      ],
      "payable": false,
      "stateMutability": "nonpayable",
      "type": "constructor",
      "signature": "constructor"
    },
    {
      "anonymous": false,
      "inputs": [
        {
          "indexed": false,
          "name": "requestor",
          "type": "address"
        },
        {
          "indexed": false,
          "name": "amount",
          "type": "uint256"
        }
      ],
      "name": "GetTokens",
      "type": "event",
      "signature": "0x4548b1aee8699526a653c333825df46ff8ec8117201598e9f02bb9f566c5754e"
    },
    {
      "anonymous": false,
      "inputs": [
        {
          "indexed": false,
          "name": "owner",
          "type": "address"
        },
        {
          "indexed": false,
          "name": "tokenAmount",
          "type": "uint256"
        }
      ],
      "name": "ReclaimTokens",
      "type": "event",
      "signature": "0x355069f20974db323c9dcd100e8bf13fb2acc1884e5ec05b0a89c09e15ce810f"
    },
    {
      "anonymous": false,
      "inputs": [
        {
          "indexed": false,
          "name": "setter",
          "type": "address"
        },
        {
          "indexed": false,
          "name": "newState",
          "type": "bool"
        },
        {
          "indexed": false,
          "name": "oldState",
          "type": "bool"
        }
      ],
      "name": "SetPause",
      "type": "event",
      "signature": "0xb70d0ff13d571b52e3005ea24087e63cd4f61ff45575a78db515f5a7558c8731"
    },
    {
      "anonymous": false,
      "inputs": [
        {
          "indexed": false,
          "name": "setter",
          "type": "address"
        },
        {
          "indexed": false,
          "name": "newState",
          "type": "uint256"
        },
        {
          "indexed": false,
          "name": "oldState",
          "type": "uint256"
        }
      ],
      "name": "SetMaxAllowance",
      "type": "event",
      "signature": "0xc697b3b7264f23c36d0e10dfb0d9e6a6d7c0b46869d6337f9ece76b60923ec77"
    },
    {
      "constant": false,
      "inputs": [
        {
          "name": "amount",
          "type": "uint256"
        }
      ],
      "name": "getTokens",
      "outputs": [
        {
          "name": "",
          "type": "bool"
        }
      ],
      "payable": false,
      "stateMutability": "nonpayable",
      "type": "function",
      "signature": "0xd3c9cc26"
    },
    {
      "constant": false,
      "inputs": [
        {
          "name": "_maxAllowanceInclusive",
          "type": "uint256"
        }
      ],
      "name": "setMaxAllowance",
      "outputs": [],
      "payable": false,
      "stateMutability": "nonpayable",
      "type": "function",
      "signature": "0x56d96a99"
    },
    {
      "constant": false,
      "inputs": [],
      "name": "reclaimTokens",
      "outputs": [
        {
          "name": "",
          "type": "bool"
        }
      ],
      "payable": false,
      "stateMutability": "nonpayable",
      "type": "function",
      "signature": "0x3c54caa5"
    },
    {
      "constant": false,
      "inputs": [
        {
          "name": "_isPaused",
          "type": "bool"
        }
      ],
      "name": "setPause",
      "outputs": [],
      "payable": false,
      "stateMutability": "nonpayable",
      "type": "function",
      "signature": "0xbedb86fb"
    }
  ],
  "bytecode": "0x608060405260028054600160a01b60ff021990811690915560038054909116905534801561002c57600080fd5b506040516040806107d48339810180604052604081101561004c57600080fd5b508051602090910151600380546001600160a01b03199081163317909155600091909155600280546001600160a01b039093169290911691909117905561073c806100986000396000f3fe608060405234801561001057600080fd5b50600436106100885760003560e01c8063a960c65f1161005b578063a960c65f14610106578063b187bd261461012c578063bedb86fb14610134578063d3c9cc261461015357610088565b80633c54caa51461008d57806340c0f420146100a957806356d96a99146100c3578063a8f6c913146100e2575b600080fd5b610095610170565b604080519115158252519081900360200190f35b6100b1610319565b60408051918252519081900360200190f35b6100e0600480360360208110156100d957600080fd5b503561031f565b005b6100ea6103bb565b604080516001600160a01b039092168252519081900360200190f35b6100b16004803603602081101561011c57600080fd5b50356001600160a01b03166103ca565b6100956103dc565b6100e06004803603602081101561014a57600080fd5b503515156103ec565b6100956004803603602081101561016957600080fd5b50356104a4565b6003546000906001600160a01b0316331461018a57600080fd5b600354600160a01b900460ff16156101a157600080fd5b60038054600160a01b60ff021916600160a01b17905560025460408051600160e01b6370a0823102815230600482015290516000926001600160a01b0316916370a08231916024808301926020929190829003018186803b15801561020557600080fd5b505afa158015610219573d6000803e3d6000fd5b505050506040513d602081101561022f57600080fd5b505160025460408051600160e01b63a9059cbb0281523360048201526024810184905290519293506001600160a01b039091169163a9059cbb916044808201926020929091908290030181600087803b15801561028b57600080fd5b505af115801561029f573d6000803e3d6000fd5b505050506040513d60208110156102b557600080fd5b50516102c5576000915050610306565b604080513381526020810183905281517f355069f20974db323c9dcd100e8bf13fb2acc1884e5ec05b0a89c09e15ce810f929181900390910190a160019150505b60038054600160a01b60ff021916905590565b60005481565b6003546001600160a01b0316331461033657600080fd5b600354600160a01b900460ff161561034d57600080fd5b60038054600160a01b60ff021916600160a01b179055600054604080513381526020810184905280820192909252517fc697b3b7264f23c36d0e10dfb0d9e6a6d7c0b46869d6337f9ece76b60923ec779181900360600190a160005560038054600160a01b60ff0219169055565b6002546001600160a01b031681565b60016020526000908152604090205481565b600254600160a01b900460ff1681565b6003546001600160a01b0316331461040357600080fd5b600354600160a01b900460ff161561041a57600080fd5b60038054600160a01b60ff021916600160a01b9081179091556002546040805133815284151560208201529290910460ff16151582820152517fb70d0ff13d571b52e3005ea24087e63cd4f61ff45575a78db515f5a7558c87319181900360600190a160028054911515600160a01b02600160a01b60ff0219928316179055600380549091169055565b600254600090600160a01b900460ff16156104be57600080fd5b600354600160a01b900460ff16156104d557600080fd5b60038054600160a01b60ff021916600160a01b17905560008054338252600160205260409091205461050d908463ffffffff6106e216565b111561051857600080fd5b60025460408051600160e01b6370a08231028152306004820152905184926001600160a01b0316916370a08231916024808301926020929190829003018186803b15801561056557600080fd5b505afa158015610579573d6000803e3d6000fd5b505050506040513d602081101561058f57600080fd5b5051101561059c57600080fd5b336000908152600160205260409020546105bc908363ffffffff6106e216565b336000818152600160209081526040808320949094556002548451600160e01b63a9059cbb02815260048101949094526024840187905293516001600160a01b039094169363a9059cbb93604480820194918390030190829087803b15801561062457600080fd5b505af1158015610638573d6000803e3d6000fd5b505050506040513d602081101561064e57600080fd5b505161068e5733600090815260016020526040902054610674908363ffffffff6106fb16565b3360009081526001602052604081209190915590506106cd565b604080513381526020810184905281517f4548b1aee8699526a653c333825df46ff8ec8117201598e9f02bb9f566c5754e929181900390910190a15060015b60038054600160a01b60ff0219169055919050565b6000828201838110156106f457600080fd5b9392505050565b60008282111561070a57600080fd5b5090039056fea165627a7a723058206385c05d5ff0e5f76a3495db5eb3461dce2013bcada9d7d0378db1f617f5cecf0029",
  "source": "// ERC20Faucet\n// Copyright (C) 2018  WeTrustPlatform\n//\n// This program is free software: you can redistribute it and/or modify\n// it under the terms of the GNU General Public License as published by\n// the Free Software Foundation, either version 3 of the License, or\n// (at your option) any later version.\n//\n// This program is distributed in the hope that it will be useful,\n// but WITHOUT ANY WARRANTY; without even the implied warranty of\n// MERCHANTABILITY or FITNESS FOR A PARTICULAR PURPOSE.  See the\n// GNU General Public License for more details.\n//\n// You should have received a copy of the GNU General Public License\n// along with this program.  If not, see <http://www.gnu.org/licenses/>.\n\npragma solidity ^0.5.6;\n\nimport {SafeMath} from \"openzeppelin-solidity/contracts/math/SafeMath.sol\";\nimport {IERC20} from \"openzeppelin-solidity/contracts/token/ERC20/IERC20.sol\";\n\ncontract ERC20Faucet {\n  using SafeMath for uint256;\n\n  uint256 public maxAllowanceInclusive;\n  mapping (address => uint256) public claimedTokens;\n  IERC20 public erc20Contract;\n  bool public isPaused = false;\n\n  address private mOwner;\n  bool private mReentrancyLock = false;\n\n  event GetTokens(address requestor, uint256 amount);\n  event ReclaimTokens(address owner, uint256 tokenAmount);\n  event SetPause(address setter, bool newState, bool oldState);\n  event SetMaxAllowance(address setter, uint256 newState, uint256 oldState);\n\n  modifier notPaused() {\n    require(!isPaused);\n    _;\n  }\n\n  modifier onlyOwner() {\n    require(msg.sender == mOwner);\n    _;\n  }\n\n  modifier nonReentrant() {\n    require(!mReentrancyLock);\n    mReentrancyLock = true;\n    _;\n    mReentrancyLock = false;\n  }\n\n  constructor(IERC20 _erc20ContractAddress, uint256 _maxAllowanceInclusive) public {\n    mOwner = msg.sender;\n    maxAllowanceInclusive = _maxAllowanceInclusive;\n    erc20Contract = _erc20ContractAddress;\n  }\n\n  function getTokens(uint256 amount) notPaused nonReentrant public returns (bool) {\n    require(claimedTokens[msg.sender].add(amount) <= maxAllowanceInclusive);\n    require(erc20Contract.balanceOf(address(this)) >= amount);\n    \n    claimedTokens[msg.sender] = claimedTokens[msg.sender].add(amount);\n\n    if (!erc20Contract.transfer(msg.sender, amount)) {\n      claimedTokens[msg.sender] = claimedTokens[msg.sender].sub(amount);\n      return false;\n    }\n    \n    emit GetTokens(msg.sender, amount);\n    return true;\n  }\n\n  function setMaxAllowance(uint256 _maxAllowanceInclusive) onlyOwner nonReentrant public {\n    emit SetMaxAllowance(msg.sender, _maxAllowanceInclusive, maxAllowanceInclusive);\n    maxAllowanceInclusive = _maxAllowanceInclusive;\n  }\n\n  function reclaimTokens() onlyOwner nonReentrant public returns (bool) {\n    uint256 tokenBalance = erc20Contract.balanceOf(address(this));\n    if (!erc20Contract.transfer(msg.sender, tokenBalance)) {\n      return false;\n    }\n\n    emit ReclaimTokens(msg.sender, tokenBalance);\n    return true;\n  }\n\n  function setPause(bool _isPaused) onlyOwner nonReentrant public {\n    emit SetPause(msg.sender, _isPaused, isPaused);\n    isPaused = _isPaused;\n  }\n}\n",
  "sourcePath": "/home/adam/PycharmProjects/erc20faucet-contracts/contracts/ERC20Faucet.sol",
  "compiler": {
    "name": "solc",
    "version": "0.5.7+commit.6da8b019.Emscripten.clang"
  },
  "schemaVersion": "3.0.6",
  "updatedAt": "2019-04-18T17:57:41.771Z",
  "devdoc": {
    "methods": {}
  },
  "userdoc": {
    "methods": {}
  }
}